:100000000C9434000C943E000C943E000C943E0082
:100010000C943E000C943E000C943E000C943E0068
:100020000C943E000C943E000C943E000C943E0058
:100030000C943E000C943E000C943E000C943E0048
:100040000C943E000C943E000C943E000C943E0038
:100050000C943E000C943E000C943E000C943E0028
:100060000C943E000C943E0011241FBECFEFD8E04C
:10007000DEBFCDBF0E945A000C946D000C940000AE
:1000800084B1826084B98AB1837F8AB98BB18C6074
:100090008BB90895E0E8F0E0908199689083E1E8F9
:1000A000F0E090819260908390E09093890080933B
:1000B000880008950E9440004B990BC088E20E947E
:1000C0004A004A9BFECF8FEF0E944A004A9BFECF18
:0E00D000F3CF80E00E944A00EFCFF894FFCFFC
:00000001FF
